{
  "contractName": "Evidence",
  "abi": [
    {
      "constant": true,
      "inputs": [],
      "name": "evidence",
      "outputs": [
        {
          "name": "",
          "type": "string"
        }
      ],
      "payable": false,
      "stateMutability": "view",
      "type": "function"
    },
    {
      "constant": true,
      "inputs": [],
      "name": "users",
      "outputs": [
        {
          "name": "",
          "type": "string"
        }
      ],
      "payable": false,
      "stateMutability": "view",
      "type": "function"
    },
    {
      "inputs": [],
      "payable": false,
      "stateMutability": "nonpayable",
      "type": "constructor"
    },
    {
      "constant": false,
      "inputs": [
        {
          "name": "ca",
          "type": "string"
        }
      ],
      "name": "setevidence",
      "outputs": [],
      "payable": false,
      "stateMutability": "nonpayable",
      "type": "function"
    },
    {
      "constant": true,
      "inputs": [],
      "name": "getevidence",
      "outputs": [
        {
          "name": "",
          "type": "string"
        }
      ],
      "payable": false,
      "stateMutability": "view",
      "type": "function"
    },
    {
      "constant": false,
      "inputs": [
        {
          "name": "pa",
          "type": "string"
        }
      ],
      "name": "setuser",
      "outputs": [],
      "payable": false,
      "stateMutability": "nonpayable",
      "type": "function"
    },
    {
      "constant": true,
      "inputs": [],
      "name": "getuser",
      "outputs": [
        {
          "name": "",
          "type": "string"
        }
      ],
      "payable": false,
      "stateMutability": "view",
      "type": "function"
    }
  ],
  "bytecode": "0x608060405234801561001057600080fd5b50602060405190810160405280600081525060009080519060200190610037929190610064565b5060206040519081016040528060008152506001908051906020019061005e929190610064565b50610109565b828054600181600116156101000203166002900490600052602060002090601f016020900481019282601f106100a557805160ff19168380011785556100d3565b828001600101855582156100d3579182015b828111156100d25782518255916020019190600101906100b7565b5b5090506100e091906100e4565b5090565b61010691905b808211156101025760008160009055506001016100ea565b5090565b90565b6107cc806101186000396000f3fe608060405260043610610072576000357c0100000000000000000000000000000000000000000000000000000000900480630cce5843146100775780633f7e6c2814610107578063a77e0987146101cf578063cff8fd691461025f578063d378f2a3146102ef578063f2020275146103b7575b600080fd5b34801561008357600080fd5b5061008c610447565b6040518080602001828103825283818151815260200191508051906020019080838360005b838110156100cc5780820151818401526020810190506100b1565b50505050905090810190601f1680156100f95780820380516001836020036101000a031916815260200191505b509250505060405180910390f35b34801561011357600080fd5b506101cd6004803603602081101561012a57600080fd5b810190808035906020019064010000000081111561014757600080fd5b82018360208201111561015957600080fd5b8035906020019184600183028401116401000000008311171561017b57600080fd5b91908080601f016020809104026020016040519081016040528093929190818152602001838380828437600081840152601f19601f8201169050808301925050505050505091929192905050506104e9565b005b3480156101db57600080fd5b506101e4610503565b6040518080602001828103825283818151815260200191508051906020019080838360005b83811015610224578082015181840152602081019050610209565b50505050905090810190601f1680156102515780820380516001836020036101000a031916815260200191505b509250505060405180910390f35b34801561026b57600080fd5b506102746105a1565b6040518080602001828103825283818151815260200191508051906020019080838360005b838110156102b4578082015181840152602081019050610299565b50505050905090810190601f1680156102e15780820380516001836020036101000a031916815260200191505b509250505060405180910390f35b3480156102fb57600080fd5b506103b56004803603602081101561031257600080fd5b810190808035906020019064010000000081111561032f57600080fd5b82018360208201111561034157600080fd5b8035906020019184600183028401116401000000008311171561036357600080fd5b91908080601f016020809104026020016040519081016040528093929190818152602001838380828437600081840152601f19601f820116905080830192505050505050509192919290505050610643565b005b3480156103c357600080fd5b506103cc61065d565b6040518080602001828103825283818151815260200191508051906020019080838360005b8381101561040c5780820151818401526020810190506103f1565b50505050905090810190601f1680156104395780820380516001836020036101000a031916815260200191505b509250505060405180910390f35b606060008054600181600116156101000203166002900480601f0160208091040260200160405190810160405280929190818152602001828054600181600116156101000203166002900480156104df5780601f106104b4576101008083540402835291602001916104df565b820191906000526020600020905b8154815290600101906020018083116104c257829003601f168201915b5050505050905090565b80600090805190602001906104ff9291906106fb565b5050565b60008054600181600116156101000203166002900480601f0160208091040260200160405190810160405280929190818152602001828054600181600116156101000203166002900480156105995780601f1061056e57610100808354040283529160200191610599565b820191906000526020600020905b81548152906001019060200180831161057c57829003601f168201915b505050505081565b606060018054600181600116156101000203166002900480601f0160208091040260200160405190810160405280929190818152602001828054600181600116156101000203166002900480156106395780601f1061060e57610100808354040283529160200191610639565b820191906000526020600020905b81548152906001019060200180831161061c57829003601f168201915b5050505050905090565b80600190805190602001906106599291906106fb565b5050565b60018054600181600116156101000203166002900480601f0160208091040260200160405190810160405280929190818152602001828054600181600116156101000203166002900480156106f35780601f106106c8576101008083540402835291602001916106f3565b820191906000526020600020905b8154815290600101906020018083116106d657829003601f168201915b505050505081565b828054600181600116156101000203166002900490600052602060002090601f016020900481019282601f1061073c57805160ff191683800117855561076a565b8280016001018555821561076a579182015b8281111561076957825182559160200191906001019061074e565b5b509050610777919061077b565b5090565b61079d91905b80821115610799576000816000905550600101610781565b5090565b9056fea165627a7a723058208defc86f8ef23557dfca38167a1603958f1d08ea5e5bd04b6ef8de64068f697d0029",
  "source": "// SPDX-License-Identifier: MIT\r\npragma solidity >= 0.4.0 <= 0.9;\r\n\r\ncontract Evidence {\r\n    string public evidence;\r\n    string public users;\r\n\r\n   \r\n    function setevidence(string memory ca) public {\r\n        evidence = ca;\t\r\n    }\r\n\r\n    function getevidence() public view returns (string memory) {\r\n        return evidence;\r\n    }\r\n    \r\n    function setuser(string memory pa) public {\r\n        users = pa;\t\r\n    }\r\n\r\n    function getuser() public view returns (string memory) {\r\n        return users;\r\n    }\r\n\r\n    constructor() public {\r\n    evidence = \"\";\r\n    users = \"\";\r\n    }\r\n}",
  "sourcePath": "C:\\Users\\madha\\OneDrive\\Desktop\\project\\project - Copy\\extension\\contracts\\Evidence.sol",
  "compiler": {
    "name": "solc",
    "version": "0.5.1+commit.c8a2cb62.Emscripten.clang"
  },
  "schemaVersion": "3.4.16",
  "updatedAt": "2025-04-29T05:42:11.665Z",
  "networkType": "ethereum",
  "devdoc": {
    "methods": {}
  },
  "userdoc": {
    "methods": {}
  }
}